{
  "_format": "hh-sol-artifact-1",
  "contractName": "Example",
  "sourceName": "contracts/Example.sol",
  "abi": [
    {
      "inputs": [],
      "stateMutability": "nonpayable",
      "type": "constructor"
    },
    {
      "anonymous": false,
      "inputs": [
        {
          "indexed": true,
          "internalType": "address",
          "name": "previousOwner",
          "type": "address"
        },
        {
          "indexed": true,
          "internalType": "address",
          "name": "newOwner",
          "type": "address"
        }
      ],
      "name": "OwnershipTransferred",
      "type": "event"
    },
    {
      "inputs": [
        {
          "internalType": "uint256",
          "name": "a",
          "type": "uint256"
        },
        {
          "internalType": "uint256",
          "name": "b",
          "type": "uint256"
        }
      ],
      "name": "add",
      "outputs": [
        {
          "internalType": "uint256",
          "name": "",
          "type": "uint256"
        }
      ],
      "stateMutability": "view",
      "type": "function"
    },
    {
      "inputs": [],
      "name": "owner",
      "outputs": [
        {
          "internalType": "address",
          "name": "",
          "type": "address"
        }
      ],
      "stateMutability": "view",
      "type": "function"
    },
    {
      "inputs": [],
      "name": "renounceOwnership",
      "outputs": [],
      "stateMutability": "nonpayable",
      "type": "function"
    },
    {
      "inputs": [
        {
          "internalType": "address",
          "name": "newOwner",
          "type": "address"
        }
      ],
      "name": "transferOwnership",
      "outputs": [],
      "stateMutability": "nonpayable",
      "type": "function"
    }
  ],
  "bytecode": "0x608060405234801561001057600080fd5b5061002161001c610026565b61002a565b61007a565b3390565b600080546001600160a01b038381166001600160a01b0319831681178455604051919092169283917f8be0079c531659141344cd1fd0a4f28419497f9722a3daafe3b4186f6b6457e09190a35050565b610321806100896000396000f3fe608060405234801561001057600080fd5b506004361061004c5760003560e01c8063715018a614610051578063771602f71461005b5780638da5cb5b14610084578063f2fde38b14610099575b600080fd5b6100596100ac565b005b61006e61006936600461020e565b610100565b60405161007b91906102be565b60405180910390f35b61008c610113565b60405161007b919061022f565b6100596100a73660046101e7565b610122565b6100b4610193565b6001600160a01b03166100c5610113565b6001600160a01b0316146100f45760405162461bcd60e51b81526004016100eb90610289565b60405180910390fd5b6100fe6000610197565b565b600061010c82846102c7565b9392505050565b6000546001600160a01b031690565b61012a610193565b6001600160a01b031661013b610113565b6001600160a01b0316146101615760405162461bcd60e51b81526004016100eb90610289565b6001600160a01b0381166101875760405162461bcd60e51b81526004016100eb90610243565b61019081610197565b50565b3390565b600080546001600160a01b038381166001600160a01b0319831681178455604051919092169283917f8be0079c531659141344cd1fd0a4f28419497f9722a3daafe3b4186f6b6457e09190a35050565b6000602082840312156101f8578081fd5b81356001600160a01b038116811461010c578182fd5b60008060408385031215610220578081fd5b50508035926020909101359150565b6001600160a01b0391909116815260200190565b60208082526026908201527f4f776e61626c653a206e6577206f776e657220697320746865207a65726f206160408201526564647265737360d01b606082015260800190565b6020808252818101527f4f776e61626c653a2063616c6c6572206973206e6f7420746865206f776e6572604082015260600190565b90815260200190565b600082198211156102e657634e487b7160e01b81526011600452602481fd5b50019056fea26469706673582212206f925f25f052737a7cc688e48c24fef8be1b6812099903df10a0eb033299681564736f6c63430008000033",
  "linkReferences": {},
  "deployedLinkReferences": {}
}